:020000040000FA
:060000000A128A11FC2F18
:100F280083160313860183120313860183120313A6
:100F380006140630F2001330F100AD30F000F00B6B
:100F4800A32FF10BA32FF20BA32FAA2F83120313A6
:100F580006100630F2001330F100AD30F000F00B4F
:100F6800B32FF10BB32FF20BB32FBA2F8312031346
:100F780086140530F2000F30F100F130F000F00B6C
:100F8800C32FF10BC32FF20BC32F83120313861049
:100F98000530F2000F30F100F130F000F00BD22FE5
:100FA800F10BD22FF20BD22F831203130615043044
:100FB800F2000C30F1003330F000F00BE12FF10BB0
:100FC800E12FF20BE12FE82F8312031306110430EF
:100FD800F2000C30F1003330F000F00BF12FF10B80
:100FE800F12FF20BF12FF82F9A2F0A128A110028ED
:080FF80083010A128A11942FF3
:02400E00FF3F72
:00000001FF
